{
  "contractName": "WeExpenses",
  "abi": [
    {
      "constant": true,
      "inputs": [
        {
          "name": "",
          "type": "address"
        }
      ],
      "name": "participants",
      "outputs": [
        {
          "name": "name",
          "type": "string"
        },
        {
          "name": "waddress",
          "type": "address"
        },
        {
          "name": "balance",
          "type": "int256"
        },
        {
          "name": "index",
          "type": "uint256"
        }
      ],
      "payable": false,
      "stateMutability": "view",
      "type": "function"
    },
    {
      "constant": true,
      "inputs": [
        {
          "name": "",
          "type": "address"
        }
      ],
      "name": "refundsAvailaible",
      "outputs": [
        {
          "name": "",
          "type": "uint256"
        }
      ],
      "payable": false,
      "stateMutability": "view",
      "type": "function"
    },
    {
      "constant": true,
      "inputs": [
        {
          "name": "",
          "type": "uint256"
        }
      ],
      "name": "expenses",
      "outputs": [
        {
          "name": "title",
          "type": "string"
        },
        {
          "name": "amount",
          "type": "uint256"
        },
        {
          "name": "valueDate",
          "type": "uint256"
        },
        {
          "name": "creationDate",
          "type": "uint256"
        },
        {
          "name": "payBy",
          "type": "address"
        }
      ],
      "payable": false,
      "stateMutability": "view",
      "type": "function"
    },
    {
      "constant": true,
      "inputs": [
        {
          "name": "",
          "type": "uint256"
        }
      ],
      "name": "addressList",
      "outputs": [
        {
          "name": "",
          "type": "address"
        }
      ],
      "payable": false,
      "stateMutability": "view",
      "type": "function"
    },
    {
      "constant": true,
      "inputs": [
        {
          "name": "",
          "type": "uint256"
        }
      ],
      "name": "refunds",
      "outputs": [
        {
          "name": "title",
          "type": "string"
        },
        {
          "name": "amount",
          "type": "uint256"
        },
        {
          "name": "date",
          "type": "uint256"
        },
        {
          "name": "refundBy",
          "type": "address"
        },
        {
          "name": "refundFor",
          "type": "address"
        }
      ],
      "payable": false,
      "stateMutability": "view",
      "type": "function"
    },
    {
      "constant": true,
      "inputs": [],
      "name": "deployed",
      "outputs": [
        {
          "name": "",
          "type": "bool"
        }
      ],
      "payable": false,
      "stateMutability": "view",
      "type": "function"
    },
    {
      "inputs": [],
      "payable": false,
      "stateMutability": "nonpayable",
      "type": "constructor"
    },
    {
      "anonymous": false,
      "inputs": [
        {
          "components": [
            {
              "name": "name",
              "type": "string"
            },
            {
              "name": "waddress",
              "type": "address"
            },
            {
              "name": "balance",
              "type": "int256"
            },
            {
              "name": "index",
              "type": "uint256"
            }
          ],
          "indexed": false,
          "name": "_participant",
          "type": "tuple"
        }
      ],
      "name": "ParticipantCreated",
      "type": "event"
    },
    {
      "anonymous": false,
      "inputs": [
        {
          "components": [
            {
              "name": "title",
              "type": "string"
            },
            {
              "name": "amount",
              "type": "uint256"
            },
            {
              "name": "date",
              "type": "uint256"
            },
            {
              "name": "refundBy",
              "type": "address"
            },
            {
              "name": "refundFor",
              "type": "address"
            }
          ],
          "indexed": false,
          "name": "_refund",
          "type": "tuple"
        }
      ],
      "name": "RefundCreated",
      "type": "event"
    },
    {
      "constant": false,
      "inputs": [
        {
          "name": "title",
          "type": "string"
        },
        {
          "name": "amount",
          "type": "uint256"
        },
        {
          "name": "date",
          "type": "uint256"
        },
        {
          "name": "payBy",
          "type": "address"
        },
        {
          "name": "payFor",
          "type": "address[]"
        }
      ],
      "name": "createExpense",
      "outputs": [],
      "payable": false,
      "stateMutability": "nonpayable",
      "type": "function"
    },
    {
      "constant": false,
      "inputs": [
        {
          "name": "indexExpense",
          "type": "uint256"
        },
        {
          "name": "agree",
          "type": "bool"
        }
      ],
      "name": "setAgreement",
      "outputs": [],
      "payable": false,
      "stateMutability": "nonpayable",
      "type": "function"
    },
    {
      "constant": true,
      "inputs": [
        {
          "name": "indexExpense",
          "type": "uint256"
        },
        {
          "name": "waddress",
          "type": "address"
        }
      ],
      "name": "getAgreement",
      "outputs": [
        {
          "name": "",
          "type": "bool"
        }
      ],
      "payable": false,
      "stateMutability": "view",
      "type": "function"
    },
    {
      "constant": true,
      "inputs": [
        {
          "name": "indexExpense",
          "type": "uint256"
        }
      ],
      "name": "getNumberOfAgreements",
      "outputs": [
        {
          "name": "",
          "type": "uint256"
        }
      ],
      "payable": false,
      "stateMutability": "view",
      "type": "function"
    },
    {
      "constant": false,
      "inputs": [
        {
          "name": "name",
          "type": "string"
        },
        {
          "name": "waddress",
          "type": "address"
        }
      ],
      "name": "createParticipant",
      "outputs": [],
      "payable": false,
      "stateMutability": "nonpayable",
      "type": "function"
    },
    {
      "constant": false,
      "inputs": [
        {
          "name": "title",
          "type": "string"
        },
        {
          "name": "date",
          "type": "uint256"
        },
        {
          "name": "refundBy",
          "type": "address"
        },
        {
          "name": "refundFor",
          "type": "address"
        }
      ],
      "name": "createRefund",
      "outputs": [],
      "payable": true,
      "stateMutability": "payable",
      "type": "function"
    },
    {
      "constant": false,
      "inputs": [],
      "name": "withdraw",
      "outputs": [],
      "payable": false,
      "stateMutability": "nonpayable",
      "type": "function"
    },
    {
      "constant": true,
      "inputs": [],
      "name": "getMaxBalance",
      "outputs": [
        {
          "name": "",
          "type": "int256"
        },
        {
          "name": "",
          "type": "uint256"
        }
      ],
      "payable": false,
      "stateMutability": "view",
      "type": "function"
    },
    {
      "constant": true,
      "inputs": [
        {
          "name": "waddress",
          "type": "address"
        }
      ],
      "name": "getBalance",
      "outputs": [
        {
          "name": "",
          "type": "int256"
        }
      ],
      "payable": false,
      "stateMutability": "view",
      "type": "function"
    },
    {
      "constant": true,
      "inputs": [
        {
          "name": "i",
          "type": "uint256"
        }
      ],
      "name": "getExpensePayFor",
      "outputs": [
        {
          "name": "",
          "type": "address[]"
        }
      ],
      "payable": false,
      "stateMutability": "view",
      "type": "function"
    }
  ],
  "bytecode": "0x60606040526000600260006101000a81548160ff02191690831515021790555034156200002b57600080fd5b620000806040805190810160405280600381526020017f476f64000000000000000000000000000000000000000000000000000000000081525033620000a1640100000000026200163c176401000000009004565b6001600260006101000a81548160ff0219169083151502179055506200052f565b620000ab620003f6565b6000803373ffffffffffffffffffffffffffffffffffffffff1673ffffffffffffffffffffffffffffffffffffffff16815260200190815260200160002060010160009054906101000a900473ffffffffffffffffffffffffffffffffffffffff1673ffffffffffffffffffffffffffffffffffffffff163373ffffffffffffffffffffffffffffffffffffffff161480620001545750600260009054906101000a900460ff16155b15156200016057600080fd5b6000808373ffffffffffffffffffffffffffffffffffffffff1673ffffffffffffffffffffffffffffffffffffffff16815260200190815260200160002060010160009054906101000a900473ffffffffffffffffffffffffffffffffffffffff1673ffffffffffffffffffffffffffffffffffffffff168273ffffffffffffffffffffffffffffffffffffffff161415806200020a5750600260009054906101000a900460ff16155b15156200021657600080fd5b600073ffffffffffffffffffffffffffffffffffffffff168273ffffffffffffffffffffffffffffffffffffffff16141515156200025357600080fd5b6080604051908101604052808481526020018373ffffffffffffffffffffffffffffffffffffffff16815260200160008152602001600081525090506001808054806001018281620002a691906200043d565b9160005260206000209001600085909190916101000a81548173ffffffffffffffffffffffffffffffffffffffff021916908373ffffffffffffffffffffffffffffffffffffffff16021790555003816060018181525050806000808473ffffffffffffffffffffffffffffffffffffffff1673ffffffffffffffffffffffffffffffffffffffff16815260200190815260200160002060008201518160000190805190602001906200035b9291906200046c565b5060208201518160010160006101000a81548173ffffffffffffffffffffffffffffffffffffffff021916908373ffffffffffffffffffffffffffffffffffffffff16021790555060408201518160020155606082015181600301559050507fc9bc1daa8cfeabf12f448027c2bb190b605bbb42078f8c9f0799fd0d18a61f3c816040518082815260200191505060405180910390a1505050565b6080604051908101604052806200040c620004f3565b8152602001600073ffffffffffffffffffffffffffffffffffffffff16815260200160008152602001600081525090565b815481835581811511620004675781836000526020600020918201910162000466919062000507565b5b505050565b828054600181600116156101000203166002900490600052602060002090601f016020900481019282601f10620004af57805160ff1916838001178555620004e0565b82800160010185558215620004e0579182015b82811115620004df578251825591602001919060010190620004c2565b5b509050620004ef919062000507565b5090565b602060405190810160405280600081525090565b6200052c91905b80821115620005285760008160009055506001016200050e565b5090565b90565b612552806200053f6000396000f3006060604052600436106100e6576000357c0100000000000000000000000000000000000000000000000000000000900463ffffffff16806305a0d037146100eb57806309e69ede1461015e5780630b1b01731461026e5780631464eb971461029c5780631996059a146102d35780633368e42e146103205780633ccfd60b146103b957806347f7dc1b146103ce5780635b779e5f14610446578063af4afe0a146104a0578063b810fb43146105a1578063c3e1888e14610604578063e36bd0f314610634578063f8008ec914610761578063f8b2cb4f146107dd578063f905c15a1461082a575b600080fd5b34156100f657600080fd5b61015c6004808035906020019082018035906020019190919290803590602001909190803590602001909190803573ffffffffffffffffffffffffffffffffffffffff169060200190919080359060200190820180359060200191909192905050610857565b005b341561016957600080fd5b610195600480803573ffffffffffffffffffffffffffffffffffffffff16906020019091905050610b45565b60405180806020018573ffffffffffffffffffffffffffffffffffffffff1673ffffffffffffffffffffffffffffffffffffffff16815260200184815260200183815260200182810382528681815460018160011615610100020316600290048152602001915080546001816001161561010002031660029004801561025c5780601f106102315761010080835404028352916020019161025c565b820191906000526020600020905b81548152906001019060200180831161023f57829003601f168201915b50509550505050505060405180910390f35b341561027957600080fd5b61029a60048080359060200190919080351515906020019091905050610b94565b005b34156102a757600080fd5b6102bd6004808035906020019091905050610d85565b6040518082815260200191505060405180910390f35b34156102de57600080fd5b61030a600480803573ffffffffffffffffffffffffffffffffffffffff16906020019091905050610e7a565b6040518082815260200191505060405180910390f35b6103b7600480803590602001908201803590602001908080601f0160208091040260200160405190810160405280939291908181526020018383808284378201915050505050509190803590602001909190803573ffffffffffffffffffffffffffffffffffffffff1690602001909190803573ffffffffffffffffffffffffffffffffffffffff16906020019091905050610e92565b005b34156103c457600080fd5b6103cc61110d565b005b34156103d957600080fd5b6103ef6004808035906020019091905050611226565b6040518080602001828103825283818151815260200191508051906020019060200280838360005b83811015610432578082015181840152602081019050610417565b505050509050019250505060405180910390f35b341561045157600080fd5b610486600480803590602001909190803573ffffffffffffffffffffffffffffffffffffffff169060200190919050506112da565b604051808215151515815260200191505060405180910390f35b34156104ab57600080fd5b6104c1600480803590602001909190505061134f565b60405180806020018681526020018581526020018481526020018373ffffffffffffffffffffffffffffffffffffffff1673ffffffffffffffffffffffffffffffffffffffff16815260200182810382528781815460018160011615610100020316600290048152602001915080546001816001161561010002031660029004801561058e5780601f106105635761010080835404028352916020019161058e565b820191906000526020600020905b81548152906001019060200180831161057157829003601f168201915b5050965050505050505060405180910390f35b34156105ac57600080fd5b6105c260048080359060200190919050506113b3565b604051808273ffffffffffffffffffffffffffffffffffffffff1673ffffffffffffffffffffffffffffffffffffffff16815260200191505060405180910390f35b341561060f57600080fd5b6106176113f2565b604051808381526020018281526020019250505060405180910390f35b341561063f57600080fd5b61065560048080359060200190919050506115b8565b60405180806020018681526020018581526020018473ffffffffffffffffffffffffffffffffffffffff1673ffffffffffffffffffffffffffffffffffffffff1681526020018373ffffffffffffffffffffffffffffffffffffffff1673ffffffffffffffffffffffffffffffffffffffff16815260200182810382528781815460018160011615610100020316600290048152602001915080546001816001161561010002031660029004801561074e5780601f106107235761010080835404028352916020019161074e565b820191906000526020600020905b81548152906001019060200180831161073157829003601f168201915b5050965050505050505060405180910390f35b341561076c57600080fd5b6107db600480803590602001908201803590602001908080601f0160208091040260200160405190810160405280939291908181526020018383808284378201915050505050509190803573ffffffffffffffffffffffffffffffffffffffff1690602001909190505061163c565b005b34156107e857600080fd5b610814600480803573ffffffffffffffffffffffffffffffffffffffff16906020019091905050611986565b6040518082815260200191505060405180910390f35b341561083557600080fd5b61083d6119d1565b604051808215151515815260200191505060405180910390f35b61085f612074565b6000803373ffffffffffffffffffffffffffffffffffffffff1673ffffffffffffffffffffffffffffffffffffffff16815260200190815260200160002060010160009054906101000a900473ffffffffffffffffffffffffffffffffffffffff1673ffffffffffffffffffffffffffffffffffffffff163373ffffffffffffffffffffffffffffffffffffffff1614806109075750600260009054906101000a900460ff16155b151561091257600080fd5b60008611151561092157600080fd5b600083839050118015610938575060148383905011155b151561094357600080fd5b61094c846119e4565b610984838380806020026020016040519081016040528093929190818152602001838360200280828437820191505050505050611a82565b6109bc838380806020026020016040519081016040528093929190818152602001838360200280828437820191505050505050611ac2565b1515156109c857600080fd5b60c06040519081016040528089898080601f01602080910402602001604051908101604052809392919081815260200183838082843782019150505050505081526020018781526020018681526020014281526020018573ffffffffffffffffffffffffffffffffffffffff168152602001848480806020026020016040519081016040528093929190818152602001838360200280828437820191505050505050815250905060038054806001018281610a8391906120cd565b916000526020600020906007020160008390919091506000820151816000019080519060200190610ab59291906120ff565b5060208201518160010155604082015181600201556060820151816003015560808201518160040160006101000a81548173ffffffffffffffffffffffffffffffffffffffff021916908373ffffffffffffffffffffffffffffffffffffffff16021790555060a0820151816005019080519060200190610b3792919061217f565b505050505050505050505050565b600060205280600052604060002060009150905080600001908060010160009054906101000a900473ffffffffffffffffffffffffffffffffffffffff16908060020154908060030154905084565b60008060008060003373ffffffffffffffffffffffffffffffffffffffff1673ffffffffffffffffffffffffffffffffffffffff16815260200190815260200160002060010160009054906101000a900473ffffffffffffffffffffffffffffffffffffffff1673ffffffffffffffffffffffffffffffffffffffff163373ffffffffffffffffffffffffffffffffffffffff161480610c415750600260009054906101000a900460ff16155b1515610c4c57600080fd5b600385815481101515610c5b57fe5b906000526020600020906007020192506224ea008360030154018360030154111515610c8657600080fd5b8315158360060160003373ffffffffffffffffffffffffffffffffffffffff1673ffffffffffffffffffffffffffffffffffffffff16815260200190815260200160002060009054906101000a900460ff16151514151515610ce757600080fd5b610cf085610d85565b9150600082141515610d0657610d0585611b91565b5b838360060160003373ffffffffffffffffffffffffffffffffffffffff1673ffffffffffffffffffffffffffffffffffffffff16815260200190815260200160002060006101000a81548160ff021916908315150217905550610d6885610d85565b9050600081141515610d7e57610d7d85611d9d565b5b5050505050565b600080600080600385815481101515610d9a57fe5b9060005260206000209060070201925060009150600090505b8260050180549050811015610e6f57600115158360060160008560050184815481101515610ddd57fe5b906000526020600020900160009054906101000a900473ffffffffffffffffffffffffffffffffffffffff1673ffffffffffffffffffffffffffffffffffffffff1673ffffffffffffffffffffffffffffffffffffffff16815260200190815260200160002060009054906101000a900460ff1615151415610e625781806001019250505b8080600101915050610db3565b819350505050919050565b60056020528060005260406000206000915090505481565b610e9a612209565b6000803373ffffffffffffffffffffffffffffffffffffffff1673ffffffffffffffffffffffffffffffffffffffff16815260200190815260200160002060010160009054906101000a900473ffffffffffffffffffffffffffffffffffffffff1673ffffffffffffffffffffffffffffffffffffffff163373ffffffffffffffffffffffffffffffffffffffff161480610f425750600260009054906101000a900460ff16155b1515610f4d57600080fd5b600034111515610f5c57600080fd5b610f65836119e4565b610f6e826119e4565b60a0604051908101604052808681526020013481526020018581526020018473ffffffffffffffffffffffffffffffffffffffff1681526020018373ffffffffffffffffffffffffffffffffffffffff16815250905060048054806001018281610fd8919061226b565b91600052602060002090600502016000839091909150600082015181600001908051906020019061100a9291906120ff565b50602082015181600101556040820151816002015560608201518160030160006101000a81548173ffffffffffffffffffffffffffffffffffffffff021916908373ffffffffffffffffffffffffffffffffffffffff16021790555060808201518160040160006101000a81548173ffffffffffffffffffffffffffffffffffffffff021916908373ffffffffffffffffffffffffffffffffffffffff16021790555050505034600560008473ffffffffffffffffffffffffffffffffffffffff1673ffffffffffffffffffffffffffffffffffffffff1681526020019081526020016000206000828254019250508190555061110681611fa9565b5050505050565b600080600560003373ffffffffffffffffffffffffffffffffffffffff1673ffffffffffffffffffffffffffffffffffffffff1681526020019081526020016000205411151561115c57600080fd5b600560003373ffffffffffffffffffffffffffffffffffffffff1673ffffffffffffffffffffffffffffffffffffffff1681526020019081526020016000205490506000600560003373ffffffffffffffffffffffffffffffffffffffff1673ffffffffffffffffffffffffffffffffffffffff168152602001908152602001600020819055503373ffffffffffffffffffffffffffffffffffffffff166108fc829081150290604051600060405180830381858888f19350505050151561122357600080fd5b50565b61122e61229d565b60038281548110151561123d57fe5b90600052602060002090600702016005018054806020026020016040519081016040528092919081815260200182805480156112ce57602002820191906000526020600020905b8160009054906101000a900473ffffffffffffffffffffffffffffffffffffffff1673ffffffffffffffffffffffffffffffffffffffff1681526020019060010190808311611284575b50505050509050919050565b60006003838154811015156112eb57fe5b906000526020600020906007020160060160008373ffffffffffffffffffffffffffffffffffffffff1673ffffffffffffffffffffffffffffffffffffffff16815260200190815260200160002060009054906101000a900460ff16905092915050565b60038181548110151561135e57fe5b906000526020600020906007020160009150905080600001908060010154908060020154908060030154908060040160009054906101000a900473ffffffffffffffffffffffffffffffffffffffff16905085565b6001818154811015156113c257fe5b90600052602060002090016000915054906101000a900473ffffffffffffffffffffffffffffffffffffffff1681565b60008060008060008060006001600081548110151561140d57fe5b906000526020600020900160009054906101000a900473ffffffffffffffffffffffffffffffffffffffff1673ffffffffffffffffffffffffffffffffffffffff1673ffffffffffffffffffffffffffffffffffffffff16815260200190815260200160002060020154925060009150600190505b6001805490508110156115ab57611514836000806001858154811015156114a557fe5b906000526020600020900160009054906101000a900473ffffffffffffffffffffffffffffffffffffffff1673ffffffffffffffffffffffffffffffffffffffff1673ffffffffffffffffffffffffffffffffffffffff1681526020019081526020016000206002015461205a565b8314151561159e5760008060018381548110151561152e57fe5b906000526020600020900160009054906101000a900473ffffffffffffffffffffffffffffffffffffffff1673ffffffffffffffffffffffffffffffffffffffff1673ffffffffffffffffffffffffffffffffffffffff1681526020019081526020016000206002015492508091505b8080600101915050611482565b8282945094505050509091565b6004818154811015156115c757fe5b906000526020600020906005020160009150905080600001908060010154908060020154908060030160009054906101000a900473ffffffffffffffffffffffffffffffffffffffff16908060040160009054906101000a900473ffffffffffffffffffffffffffffffffffffffff16905085565b6116446122b1565b6000803373ffffffffffffffffffffffffffffffffffffffff1673ffffffffffffffffffffffffffffffffffffffff16815260200190815260200160002060010160009054906101000a900473ffffffffffffffffffffffffffffffffffffffff1673ffffffffffffffffffffffffffffffffffffffff163373ffffffffffffffffffffffffffffffffffffffff1614806116ec5750600260009054906101000a900460ff16155b15156116f757600080fd5b6000808373ffffffffffffffffffffffffffffffffffffffff1673ffffffffffffffffffffffffffffffffffffffff16815260200190815260200160002060010160009054906101000a900473ffffffffffffffffffffffffffffffffffffffff1673ffffffffffffffffffffffffffffffffffffffff168273ffffffffffffffffffffffffffffffffffffffff161415806117a05750600260009054906101000a900460ff16155b15156117ab57600080fd5b600073ffffffffffffffffffffffffffffffffffffffff168273ffffffffffffffffffffffffffffffffffffffff16141515156117e757600080fd5b6080604051908101604052808481526020018373ffffffffffffffffffffffffffffffffffffffff1681526020016000815260200160008152509050600180805480600101828161183891906122f6565b9160005260206000209001600085909190916101000a81548173ffffffffffffffffffffffffffffffffffffffff021916908373ffffffffffffffffffffffffffffffffffffffff16021790555003816060018181525050806000808473ffffffffffffffffffffffffffffffffffffffff1673ffffffffffffffffffffffffffffffffffffffff16815260200190815260200160002060008201518160000190805190602001906118eb9291906120ff565b5060208201518160010160006101000a81548173ffffffffffffffffffffffffffffffffffffffff021916908373ffffffffffffffffffffffffffffffffffffffff16021790555060408201518160020155606082015181600301559050507fc9bc1daa8cfeabf12f448027c2bb190b605bbb42078f8c9f0799fd0d18a61f3c816040518082815260200191505060405180910390a1505050565b60008060008373ffffffffffffffffffffffffffffffffffffffff1673ffffffffffffffffffffffffffffffffffffffff168152602001908152602001600020600201549050919050565b600260009054906101000a900460ff1681565b6000808273ffffffffffffffffffffffffffffffffffffffff1673ffffffffffffffffffffffffffffffffffffffff16815260200190815260200160002060010160009054906101000a900473ffffffffffffffffffffffffffffffffffffffff1673ffffffffffffffffffffffffffffffffffffffff168173ffffffffffffffffffffffffffffffffffffffff16141515611a7f57600080fd5b50565b60008090505b8151811015611abe57611ab18282815181101515611aa257fe5b906020019060200201516119e4565b8080600101915050611a88565b5050565b60008060008060008092505b8551831015611b8357600093508583815181101515611ae957fe5b906020019060200201519150600090505b8551811015611b76578581815181101515611b1157fe5b9060200190602002015173ffffffffffffffffffffffffffffffffffffffff168273ffffffffffffffffffffffffffffffffffffffff161415611b575783806001019450505b6002841415611b695760019450611b88565b8080600101915050611afa565b8280600101935050611ace565b600094505b50505050919050565b600080600080611ba085610d85565b9350600084111515611bb157600080fd5b600385815481101515611bc057fe5b90600052602060002090600702019250838360010154811515611bdf57fe5b04915082600101546000808560040160009054906101000a900473ffffffffffffffffffffffffffffffffffffffff1673ffffffffffffffffffffffffffffffffffffffff1673ffffffffffffffffffffffffffffffffffffffff16815260200190815260200160002060020160008282540392505081905550600090505b8260050180549050811015611d96578260060160008460050183815481101515611c8457fe5b906000526020600020900160009054906101000a900473ffffffffffffffffffffffffffffffffffffffff1673ffffffffffffffffffffffffffffffffffffffff1673ffffffffffffffffffffffffffffffffffffffff16815260200190815260200160002060009054906101000a900460ff1615611d8957816000808560050184815481101515611d1257fe5b906000526020600020900160009054906101000a900473ffffffffffffffffffffffffffffffffffffffff1673ffffffffffffffffffffffffffffffffffffffff1673ffffffffffffffffffffffffffffffffffffffff168152602001908152602001600020600201600082825401925050819055505b8080600101915050611c5e565b5050505050565b600080600080611dac85610d85565b9350600084111515611dbd57600080fd5b600385815481101515611dcc57fe5b90600052602060002090600702019250838360010154811515611deb57fe5b04915082600101546000808560040160009054906101000a900473ffffffffffffffffffffffffffffffffffffffff1673ffffffffffffffffffffffffffffffffffffffff1673ffffffffffffffffffffffffffffffffffffffff16815260200190815260200160002060020160008282540192505081905550600090505b8260050180549050811015611fa2578260060160008460050183815481101515611e9057fe5b906000526020600020900160009054906101000a900473ffffffffffffffffffffffffffffffffffffffff1673ffffffffffffffffffffffffffffffffffffffff1673ffffffffffffffffffffffffffffffffffffffff16815260200190815260200160002060009054906101000a900460ff1615611f9557816000808560050184815481101515611f1e57fe5b906000526020600020900160009054906101000a900473ffffffffffffffffffffffffffffffffffffffff1673ffffffffffffffffffffffffffffffffffffffff1673ffffffffffffffffffffffffffffffffffffffff168152602001908152602001600020600201600082825403925050819055505b8080600101915050611e6a565b5050505050565b8060200151600080836080015173ffffffffffffffffffffffffffffffffffffffff1673ffffffffffffffffffffffffffffffffffffffff168152602001908152602001600020600201600082825403925050819055508060200151600080836060015173ffffffffffffffffffffffffffffffffffffffff1673ffffffffffffffffffffffffffffffffffffffff1681526020019081526020016000206002016000828254019250508190555050565b60008183121561206a578161206c565b825b905092915050565b60c060405190810160405280612088612322565b8152602001600081526020016000815260200160008152602001600073ffffffffffffffffffffffffffffffffffffffff1681526020016120c7612336565b81525090565b8154818355818115116120fa576007028160070283600052602060002091820191016120f9919061234a565b5b505050565b828054600181600116156101000203166002900490600052602060002090601f016020900481019282601f1061214057805160ff191683800117855561216e565b8280016001018555821561216e579182015b8281111561216d578251825591602001919060010190612152565b5b50905061217b91906123c8565b5090565b8280548282559060005260206000209081019282156121f8579160200282015b828111156121f75782518260006101000a81548173ffffffffffffffffffffffffffffffffffffffff021916908373ffffffffffffffffffffffffffffffffffffffff1602179055509160200191906001019061219f565b5b50905061220591906123ed565b5090565b60a06040519081016040528061221d612322565b81526020016000815260200160008152602001600073ffffffffffffffffffffffffffffffffffffffff168152602001600073ffffffffffffffffffffffffffffffffffffffff1681525090565b815481835581811511612298576005028160050283600052602060002091820191016122979190612430565b5b505050565b602060405190810160405280600081525090565b6080604051908101604052806122c5612322565b8152602001600073ffffffffffffffffffffffffffffffffffffffff16815260200160008152602001600081525090565b81548183558181151161231d5781836000526020600020918201910161231c91906123c8565b5b505050565b602060405190810160405280600081525090565b602060405190810160405280600081525090565b6123c591905b808211156123c1576000808201600061236991906124bd565b6001820160009055600282016000905560038201600090556004820160006101000a81549073ffffffffffffffffffffffffffffffffffffffff02191690556005820160006123b89190612505565b50600701612350565b5090565b90565b6123ea91905b808211156123e65760008160009055506001016123ce565b5090565b90565b61242d91905b8082111561242957600081816101000a81549073ffffffffffffffffffffffffffffffffffffffff0219169055506001016123f3565b5090565b90565b6124ba91905b808211156124b6576000808201600061244f91906124bd565b600182016000905560028201600090556003820160006101000a81549073ffffffffffffffffffffffffffffffffffffffff02191690556004820160006101000a81549073ffffffffffffffffffffffffffffffffffffffff021916905550600501612436565b5090565b90565b50805460018160011615610100020316600290046000825580601f106124e35750612502565b601f01602090049060005260206000209081019061250191906123c8565b5b50565b508054600082559060005260206000209081019061252391906123c8565b505600a165627a7a72305820fd91be3fb1cab42a2e16eb5d6e6170cf056aa719ebcdea3648c5160d822061990029",
  "source": "pragma solidity ^0.4.10;\n\n/// @title A group expenses smart contract allowing you to settle up your debts and credits\n/// @author Adrien Arcuri\n/// @notice You can use this contract to record your group expenses, refund participants,\n/// check the debts and credits of the groups and settle up.\n/// @dev No comments for dev\ncontract WeExpenses {\n    // Participant is a person or an organization which can be part of \n    struct Participant {\n        string name; // name of the participant or the organization\n        address waddress; // address of the participant\n        int balance; // balance of the participant in cents (int type because balance can be negative).\n        uint index; // index of the participant in the address list\n    }\n\n    // Expense which will be part of all the expenses\n    struct Expense {\n        string title; // title or designation of the expense\n        uint amount; // amount of the expense in cents (uint type because amount must not be negative)\n        uint valueDate; // date when the expense has been made\n        uint creationDate; // date of creation in the system \n        address payBy; // The participant who pays the expense\n        address[] payFor; // The list of participants who apply for the expense\n        mapping(address => bool) agreements; //  Allow to know if a participant in the payFor array have given is agreement to contributes to the expense\n    }\n\n    // Refund which will be part of all the refunds\n    struct Refund {\n        string title; // title or designation of the refund\n        uint amount; // amount of the refund in cents(uint type because amount must not be negative)\n        uint date; // date of the refund\n        address refundBy; // The participant who refunds\n        address refundFor; // The refunded participant\n    }\n\n    // This declares a state variable that\n    // stores a `Participant` struct for each possible address.\n    mapping(address => Participant) public participants;\n\n    address[] public addressList;\n\n    bool public deployed = false; // Allow the creation of the first participant when the contract deployed\n    \n    // A dynamically-sized array of `Expenses` structs.\n    Expense[] public expenses;\n\n    // A dynamically-sized array of `Refunds` structs.\n    Refund[] public refunds;\n\n    // A mapping of all the available refunds to withdraw per address\n    mapping(address => uint) public refundsAvailaible;\n\n    event ParticipantCreated(\n        Participant _participant\n    );\n    event RefundCreated(\n        Refund _refund\n    );\n\n\n    // This modifier requires that the sender of the transaction is registred as participant\n    modifier onlyByParticipant () {\n        require(msg.sender == participants[msg.sender].waddress || !deployed); // You must be a participant to create an expense\n        _;\n    }\n\n    /// Create a new WeExpenses contract\n    function WeExpenses() public {\n        createParticipant(\"God\", msg.sender);\n        deployed = true;\n    }\n\n    // Create a new expense and add it in the expenses list\n    function createExpense(string title, uint amount, uint date,\n     address payBy, address[] payFor) external onlyByParticipant()\n     {\n        require(amount > 0);\n        require(payFor.length > 0 && payFor.length <= 20); // Limit the number of contributors of one expense\n        verifyIfParticipant(payBy);\n        verifyIfParticipants(payFor);\n        require(!isDuplicateInPayFor(payFor));\n\n        Expense memory expense = Expense(title, amount, date, now, payBy, payFor);\n        expenses.push(expense);\n    }\n\n    // Verify if several addresses are registred as participant. Return true if we found duplicate else false.\n    function isDuplicateInPayFor(address[] listAddress) internal pure returns (bool) {\n        uint counter;\n        for (uint i = 0; i<listAddress.length; i++) {\n            counter = 0;\n            address addr = listAddress[i];\n            for (uint j = 0; j<listAddress.length; j++) {\n                if (addr == listAddress[j]) {counter++;}\n                if (counter == 2) {return true;}\n            }\n        }\n        return false;\n    }\n\n    // Verify if several addresses are registred as participant\n    function verifyIfParticipants(address[] listAddress) internal view {\n        for (uint i = 0; i < listAddress.length; i++) {\n            verifyIfParticipant(listAddress[i]);\n        }\n    }\n\n    // Verify if an address is registered as participant\n    function verifyIfParticipant(address waddress) internal view {\n        require(waddress == participants[waddress].waddress);\n    }\n\n    // Give agreement of the sender to an expense\n    function setAgreement(uint indexExpense, bool agree) onlyByParticipant() public {\n        Expense storage expense = expenses[indexExpense];\n        require(expense.creationDate > expense.creationDate + 4 weeks); // May only be called 4 weeks after the expense has been created\n        require(expense.agreements[msg.sender] != agree);\n        uint numberOfAgreeBefore = getNumberOfAgreements(indexExpense);\n        // Warning : There is no agreements when the expense is created. That's mean the balance did not synchronize.\n        // If the number of agreements before is not 0, we revert the balance to the previous state without the expense\n        if (numberOfAgreeBefore != 0) {\n            revertBalance(indexExpense);\n        }\n\n        // Update the number of agreements\n        expense.agreements[msg.sender] = agree;\n        uint numberOfAgreeAfter = getNumberOfAgreements(indexExpense);\n\n        // If the number of agreements after is not 0, we syncrhonize the balance\n        if (numberOfAgreeAfter != 0) {\n            syncBalance(indexExpense);\n        }\n    }\n\n    // Get agreement of depending on the indexExpenses and address of the participant\n    function getAgreement(uint indexExpense, address waddress)  public view returns (bool) {\n        return expenses[indexExpense].agreements[waddress];\n    }\n\n    // Get the number of agreements of a given expense\n    function getNumberOfAgreements(uint indexExpense) public view returns (uint) {\n        Expense storage expense = expenses[indexExpense];\n        uint numberOfAgreements = 0;\n        for (uint i = 0; i < expense.payFor.length; i++) {\n            if (expense.agreements[expense.payFor[i]] == true) {\n                numberOfAgreements++;\n            }                \n        }\n        return numberOfAgreements;  \n    }\n\n    // Create a new participant in the participants mapping\n    function createParticipant(string name, address waddress) onlyByParticipant() public {\n        require(waddress != participants[waddress].waddress || !deployed); //only one address per participant\n        require(waddress != address(0)); // avoid to participant address equal to 0x0\n        Participant memory participant = Participant({name: name, waddress: waddress, balance: 0, index: 0});\n        participant.index = addressList.push(waddress)-1; //add the address to the addressList\n        participants[waddress] = participant;\n\n        ParticipantCreated(participant);\n    }\n\n    // Create a payable refund in ether\n    function createRefund(string title, uint date,\n     address refundBy, address refundFor) onlyByParticipant() public payable\n    {   \n        require(msg.value > 0);\n        verifyIfParticipant(refundBy);\n        verifyIfParticipant(refundFor);\n        Refund memory refund = Refund({title: title, amount: msg.value, date: date, refundBy: refundBy, refundFor: refundFor});\n        refunds.push(refund);\n        refundsAvailaible[refundFor] += msg.value;\n        syncBalanceRef(refund);\n    }\n\n    // Allow participant to withdraw available for them amount stored in the smart contract\n    function withdraw() public {\n        require(refundsAvailaible[msg.sender] > 0);\n        uint amount = refundsAvailaible[msg.sender];\n        refundsAvailaible[msg.sender] = 0;\n        msg.sender.transfer(amount);\n    }\n\n    // Synchronize the balance after each new expense\n    /** \n    function syncBalanceExp(Expense expense) internal {\n        uint contributors = getNumberOfAgreements(index);\n        require(contributors > 0);\n\n        uint portion = expense.amount / contributors;\n        participants[expense.payBy].balance += int(expense.amount);\n        for (uint i = 0; i < expense.payFor.length; i++) {\n                participants[expense.payFor[i]].balance -= int(portion);\n        }       \n    }\n    */\n\n    // Synchronize the balance after each new expense #NEW\n    function syncBalance(uint indexExpense) internal {\n        uint contributors = getNumberOfAgreements(indexExpense);\n        require(contributors > 0);\n        Expense storage expense = expenses[indexExpense];\n        uint portion = expense.amount / contributors;\n        participants[expense.payBy].balance += int(expense.amount);\n        for (uint i = 0; i < expense.payFor.length; i++) {\n            if (expense.agreements[expense.payFor[i]]) {\n                participants[expense.payFor[i]].balance -= int(portion);\n            }   \n        }       \n    }\n\n    // Revert the state of the balance before to add the expense\n    function revertBalance(uint indexExpense) internal {\n        uint contributors = getNumberOfAgreements(indexExpense);\n        require(contributors > 0);\n        Expense storage expense = expenses[indexExpense];\n        uint portion = expense.amount / contributors;\n        participants[expense.payBy].balance -= int(expense.amount);\n        for (uint i = 0; i < expense.payFor.length; i++) {\n            if (expense.agreements[expense.payFor[i]]) {\n                participants[expense.payFor[i]].balance += int(portion);\n            }   \n        }       \n    }\n\n    // Return maximum balance and the index of the list of participants\n    function getMaxBalance() public view returns (int, uint) {\n        int max = participants[addressList[0]].balance;\n        uint index = 0;\n        for (uint i = 1; i < addressList.length; i++) {\n            if (max != max256(max, participants[addressList[i]].balance)) {\n                max = participants[addressList[i]].balance;\n                index = i;\n            }\n        }\n        return (max, index);\n    }\n\n    // Get Balance of a participant\n    function getBalance(address waddress) public view returns (int) {\n        return participants[waddress].balance;\n    }\n  \n    // Synchronize the balance after each new refund\n    function syncBalanceRef(Refund refund) internal {\n        participants[refund.refundFor].balance -= int(refund.amount);\n        participants[refund.refundBy].balance += int(refund.amount);\n    }\n\n    // Get the list of PayFor of an expense\n    function getExpensePayFor(uint i) public view returns (address[]) {\n      return expenses[i].payFor;\n    }\n\n    function max256(int256 a, int256 b) internal pure returns (int256) {\n        return a >= b ? a : b;\n    }\n\n    function min256(int256 a, int256 b) internal pure returns (int256) {\n        return a < b ? a : b;\n    }    \n}\n    \n",
  "sourcePath": "/Users/adrienarcuri/Sites/WeExpenses/contracts/WeExpenses.sol",
  "compiler": {
    "name": "solc",
    "version": "0.4.19+commit.c4cbbb05.Emscripten.clang"
  },
  "schemaVersion": "1.0.1",
  "updatedAt": "2018-03-06T20:31:28.233Z"
}