{
  "contractName": "WeExpenses",
  "abi": [
    {
      "constant": true,
      "inputs": [
        {
          "name": "",
          "type": "address"
        }
      ],
      "name": "participants",
      "outputs": [
        {
          "name": "name",
          "type": "string"
        },
        {
          "name": "waddress",
          "type": "address"
        },
        {
          "name": "balance",
          "type": "int256"
        },
        {
          "name": "index",
          "type": "uint256"
        }
      ],
      "payable": false,
      "stateMutability": "view",
      "type": "function"
    },
    {
      "constant": true,
      "inputs": [
        {
          "name": "",
          "type": "address"
        }
      ],
      "name": "withdrawals",
      "outputs": [
        {
          "name": "",
          "type": "uint256"
        }
      ],
      "payable": false,
      "stateMutability": "view",
      "type": "function"
    },
    {
      "constant": true,
      "inputs": [
        {
          "name": "",
          "type": "uint256"
        }
      ],
      "name": "payments",
      "outputs": [
        {
          "name": "title",
          "type": "string"
        },
        {
          "name": "amount",
          "type": "uint256"
        },
        {
          "name": "valueDate",
          "type": "uint256"
        },
        {
          "name": "payer",
          "type": "address"
        },
        {
          "name": "payee",
          "type": "address"
        }
      ],
      "payable": false,
      "stateMutability": "view",
      "type": "function"
    },
    {
      "constant": true,
      "inputs": [
        {
          "name": "",
          "type": "uint256"
        }
      ],
      "name": "expenses",
      "outputs": [
        {
          "name": "title",
          "type": "string"
        },
        {
          "name": "amount",
          "type": "uint256"
        },
        {
          "name": "valueDate",
          "type": "uint256"
        },
        {
          "name": "creationDate",
          "type": "uint256"
        },
        {
          "name": "payer",
          "type": "address"
        }
      ],
      "payable": false,
      "stateMutability": "view",
      "type": "function"
    },
    {
      "constant": true,
      "inputs": [
        {
          "name": "",
          "type": "uint256"
        }
      ],
      "name": "addressList",
      "outputs": [
        {
          "name": "",
          "type": "address"
        }
      ],
      "payable": false,
      "stateMutability": "view",
      "type": "function"
    },
    {
      "constant": true,
      "inputs": [],
      "name": "deployed",
      "outputs": [
        {
          "name": "",
          "type": "bool"
        }
      ],
      "payable": false,
      "stateMutability": "view",
      "type": "function"
    },
    {
      "inputs": [
        {
          "name": "name",
          "type": "string"
        }
      ],
      "payable": false,
      "stateMutability": "nonpayable",
      "type": "constructor"
    },
    {
      "constant": false,
      "inputs": [
        {
          "name": "_name",
          "type": "string"
        },
        {
          "name": "_waddress",
          "type": "address"
        }
      ],
      "name": "createParticipant",
      "outputs": [],
      "payable": false,
      "stateMutability": "nonpayable",
      "type": "function"
    },
    {
      "constant": false,
      "inputs": [
        {
          "name": "_title",
          "type": "string"
        },
        {
          "name": "_amount",
          "type": "uint256"
        },
        {
          "name": "_valueDate",
          "type": "uint256"
        },
        {
          "name": "_payees",
          "type": "address[]"
        }
      ],
      "name": "createExpense",
      "outputs": [],
      "payable": false,
      "stateMutability": "nonpayable",
      "type": "function"
    },
    {
      "constant": false,
      "inputs": [
        {
          "name": "indexExpense",
          "type": "uint256"
        },
        {
          "name": "agree",
          "type": "bool"
        }
      ],
      "name": "setAgreement",
      "outputs": [],
      "payable": false,
      "stateMutability": "nonpayable",
      "type": "function"
    },
    {
      "constant": false,
      "inputs": [
        {
          "name": "_title",
          "type": "string"
        },
        {
          "name": "_payee",
          "type": "address"
        }
      ],
      "name": "createPayment",
      "outputs": [],
      "payable": true,
      "stateMutability": "payable",
      "type": "function"
    },
    {
      "constant": false,
      "inputs": [],
      "name": "withdraw",
      "outputs": [],
      "payable": false,
      "stateMutability": "nonpayable",
      "type": "function"
    },
    {
      "constant": true,
      "inputs": [],
      "name": "getMaxBalance",
      "outputs": [
        {
          "name": "",
          "type": "int256"
        },
        {
          "name": "",
          "type": "uint256"
        }
      ],
      "payable": false,
      "stateMutability": "view",
      "type": "function"
    },
    {
      "constant": true,
      "inputs": [
        {
          "name": "indexExpense",
          "type": "uint256"
        },
        {
          "name": "_waddress",
          "type": "address"
        }
      ],
      "name": "getAgreement",
      "outputs": [
        {
          "name": "",
          "type": "bool"
        }
      ],
      "payable": false,
      "stateMutability": "view",
      "type": "function"
    },
    {
      "constant": true,
      "inputs": [
        {
          "name": "indexExpense",
          "type": "uint256"
        }
      ],
      "name": "getNumberOfAgreements",
      "outputs": [
        {
          "name": "",
          "type": "uint256"
        }
      ],
      "payable": false,
      "stateMutability": "view",
      "type": "function"
    },
    {
      "constant": true,
      "inputs": [
        {
          "name": "_waddress",
          "type": "address"
        }
      ],
      "name": "getBalance",
      "outputs": [
        {
          "name": "",
          "type": "int256"
        }
      ],
      "payable": false,
      "stateMutability": "view",
      "type": "function"
    },
    {
      "constant": true,
      "inputs": [
        {
          "name": "_waddress",
          "type": "address"
        }
      ],
      "name": "getParticipantName",
      "outputs": [
        {
          "name": "",
          "type": "string"
        }
      ],
      "payable": false,
      "stateMutability": "view",
      "type": "function"
    }
  ],
  "bytecode": "0x60606040526000600260006101000a81548160ff02191690831515021790555034156200002b57600080fd5b604051620028ee380380620028ee833981016040528080518201919050506200006981336200008b640100000000026200144e176401000000009004565b6001600260006101000a81548160ff02191690831515021790555050620004e2565b62000095620003a9565b6000803373ffffffffffffffffffffffffffffffffffffffff1673ffffffffffffffffffffffffffffffffffffffff16815260200190815260200160002060010160009054906101000a900473ffffffffffffffffffffffffffffffffffffffff1673ffffffffffffffffffffffffffffffffffffffff163373ffffffffffffffffffffffffffffffffffffffff1614806200013e5750600260009054906101000a900460ff16155b15156200014a57600080fd5b6000808373ffffffffffffffffffffffffffffffffffffffff1673ffffffffffffffffffffffffffffffffffffffff16815260200190815260200160002060010160009054906101000a900473ffffffffffffffffffffffffffffffffffffffff1673ffffffffffffffffffffffffffffffffffffffff168273ffffffffffffffffffffffffffffffffffffffff16141580620001f45750600260009054906101000a900460ff16155b15156200020057600080fd5b600073ffffffffffffffffffffffffffffffffffffffff168273ffffffffffffffffffffffffffffffffffffffff16141515156200023d57600080fd5b6080604051908101604052808481526020018373ffffffffffffffffffffffffffffffffffffffff16815260200160008152602001600081525090506001808054806001018281620002909190620003f0565b9160005260206000209001600085909190916101000a81548173ffffffffffffffffffffffffffffffffffffffff021916908373ffffffffffffffffffffffffffffffffffffffff16021790555003816060018181525050806000808473ffffffffffffffffffffffffffffffffffffffff1673ffffffffffffffffffffffffffffffffffffffff1681526020019081526020016000206000820151816000019080519060200190620003459291906200041f565b5060208201518160010160006101000a81548173ffffffffffffffffffffffffffffffffffffffff021916908373ffffffffffffffffffffffffffffffffffffffff1602179055506040820151816002015560608201518160030155905050505050565b608060405190810160405280620003bf620004a6565b8152602001600073ffffffffffffffffffffffffffffffffffffffff16815260200160008152602001600081525090565b8154818355818115116200041a57818360005260206000209182019101620004199190620004ba565b5b505050565b828054600181600116156101000203166002900490600052602060002090601f016020900481019282601f106200046257805160ff191683800117855562000493565b8280016001018555821562000493579182015b828111156200049257825182559160200191906001019062000475565b5b509050620004a29190620004ba565b5090565b602060405190810160405280600081525090565b620004df91905b80821115620004db576000816000905550600101620004c1565b5090565b90565b6123fc80620004f26000396000f3006060604052600436106100e6576000357c0100000000000000000000000000000000000000000000000000000000900463ffffffff16806309e69ede146100eb5780630b1b0173146101fb5780631464eb971461022957806331384cff146102605780633ccfd60b146103125780635b779e5f146103275780637a9262a2146103815780637bb204ff146103ce57806387d817891461047d578063af4afe0a146105aa578063b810fb43146106ab578063c3e1888e1461070e578063f8008ec91461073e578063f8164e59146107ba578063f8b2cb4f1461082b578063f905c15a14610878575b600080fd5b34156100f657600080fd5b610122600480803573ffffffffffffffffffffffffffffffffffffffff169060200190919050506108a5565b60405180806020018573ffffffffffffffffffffffffffffffffffffffff1673ffffffffffffffffffffffffffffffffffffffff1681526020018481526020018381526020018281038252868181546001816001161561010002031660029004815260200191508054600181600116156101000203166002900480156101e95780601f106101be576101008083540402835291602001916101e9565b820191906000526020600020905b8154815290600101906020018083116101cc57829003601f168201915b50509550505050505060405180910390f35b341561020657600080fd5b610227600480803590602001909190803515159060200190919050506108f4565b005b341561023457600080fd5b61024a6004808035906020019091905050610ae5565b6040518082815260200191505060405180910390f35b341561026b57600080fd5b610297600480803573ffffffffffffffffffffffffffffffffffffffff16906020019091905050610bda565b6040518080602001828103825283818151815260200191508051906020019080838360005b838110156102d75780820151818401526020810190506102bc565b50505050905090810190601f1680156103045780820380516001836020036101000a031916815260200191505b509250505060405180910390f35b341561031d57600080fd5b610325610cc3565b005b341561033257600080fd5b610367600480803590602001909190803573ffffffffffffffffffffffffffffffffffffffff16906020019091905050610e90565b604051808215151515815260200191505060405180910390f35b341561038c57600080fd5b6103b8600480803573ffffffffffffffffffffffffffffffffffffffff16906020019091905050610f05565b6040518082815260200191505060405180910390f35b34156103d957600080fd5b61047b600480803590602001908201803590602001908080601f0160208091040260200160405190810160405280939291908181526020018383808284378201915050505050509190803590602001909190803590602001909190803590602001908201803590602001908080602002602001604051908101604052809392919081815260200183836020028082843782019150505050505091905050610f1d565b005b341561048857600080fd5b61049e6004808035906020019091905050611161565b60405180806020018681526020018581526020018473ffffffffffffffffffffffffffffffffffffffff1673ffffffffffffffffffffffffffffffffffffffff1681526020018373ffffffffffffffffffffffffffffffffffffffff1673ffffffffffffffffffffffffffffffffffffffff1681526020018281038252878181546001816001161561010002031660029004815260200191508054600181600116156101000203166002900480156105975780601f1061056c57610100808354040283529160200191610597565b820191906000526020600020905b81548152906001019060200180831161057a57829003601f168201915b5050965050505050505060405180910390f35b34156105b557600080fd5b6105cb60048080359060200190919050506111e5565b60405180806020018681526020018581526020018481526020018373ffffffffffffffffffffffffffffffffffffffff1673ffffffffffffffffffffffffffffffffffffffff1681526020018281038252878181546001816001161561010002031660029004815260200191508054600181600116156101000203166002900480156106985780601f1061066d57610100808354040283529160200191610698565b820191906000526020600020905b81548152906001019060200180831161067b57829003601f168201915b5050965050505050505060405180910390f35b34156106b657600080fd5b6106cc6004808035906020019091905050611249565b604051808273ffffffffffffffffffffffffffffffffffffffff1673ffffffffffffffffffffffffffffffffffffffff16815260200191505060405180910390f35b341561071957600080fd5b610721611288565b604051808381526020018281526020019250505060405180910390f35b341561074957600080fd5b6107b8600480803590602001908201803590602001908080601f0160208091040260200160405190810160405280939291908181526020018383808284378201915050505050509190803573ffffffffffffffffffffffffffffffffffffffff1690602001909190505061144e565b005b610829600480803590602001908201803590602001908080601f0160208091040260200160405190810160405280939291908181526020018383808284378201915050505050509190803573ffffffffffffffffffffffffffffffffffffffff16906020019091905050611761565b005b341561083657600080fd5b610862600480803573ffffffffffffffffffffffffffffffffffffffff169060200190919050506119e2565b6040518082815260200191505060405180910390f35b341561088357600080fd5b61088b611a2d565b604051808215151515815260200191505060405180910390f35b600060205280600052604060002060009150905080600001908060010160009054906101000a900473ffffffffffffffffffffffffffffffffffffffff16908060020154908060030154905084565b60008060008060003373ffffffffffffffffffffffffffffffffffffffff1673ffffffffffffffffffffffffffffffffffffffff16815260200190815260200160002060010160009054906101000a900473ffffffffffffffffffffffffffffffffffffffff1673ffffffffffffffffffffffffffffffffffffffff163373ffffffffffffffffffffffffffffffffffffffff1614806109a15750600260009054906101000a900460ff16155b15156109ac57600080fd5b6003858154811015156109bb57fe5b906000526020600020906007020192506224ea0083600301540183600301541115156109e657600080fd5b8315158360060160003373ffffffffffffffffffffffffffffffffffffffff1673ffffffffffffffffffffffffffffffffffffffff16815260200190815260200160002060009054906101000a900460ff16151514151515610a4757600080fd5b610a5085610ae5565b9150600082141515610a6657610a6585611a40565b5b838360060160003373ffffffffffffffffffffffffffffffffffffffff1673ffffffffffffffffffffffffffffffffffffffff16815260200190815260200160002060006101000a81548160ff021916908315150217905550610ac885610ae5565b9050600081141515610ade57610add85611a4e565b5b5050505050565b600080600080600385815481101515610afa57fe5b9060005260206000209060070201925060009150600090505b8260050180549050811015610bcf57600115158360060160008560050184815481101515610b3d57fe5b906000526020600020900160009054906101000a900473ffffffffffffffffffffffffffffffffffffffff1673ffffffffffffffffffffffffffffffffffffffff1673ffffffffffffffffffffffffffffffffffffffff16815260200190815260200160002060009054906101000a900460ff1615151415610bc25781806001019250505b8080600101915050610b13565b819350505050919050565b610be2611f1e565b6000808373ffffffffffffffffffffffffffffffffffffffff1673ffffffffffffffffffffffffffffffffffffffff1681526020019081526020016000206000018054600181600116156101000203166002900480601f016020809104026020016040519081016040528092919081815260200182805460018160011615610100020316600290048015610cb75780601f10610c8c57610100808354040283529160200191610cb7565b820191906000526020600020905b815481529060010190602001808311610c9a57829003601f168201915b50505050509050919050565b60008060003373ffffffffffffffffffffffffffffffffffffffff1673ffffffffffffffffffffffffffffffffffffffff16815260200190815260200160002060010160009054906101000a900473ffffffffffffffffffffffffffffffffffffffff1673ffffffffffffffffffffffffffffffffffffffff163373ffffffffffffffffffffffffffffffffffffffff161480610d6d5750600260009054906101000a900460ff16155b1515610d7857600080fd5b6000600560003373ffffffffffffffffffffffffffffffffffffffff1673ffffffffffffffffffffffffffffffffffffffff16815260200190815260200160002054111515610dc657600080fd5b600560003373ffffffffffffffffffffffffffffffffffffffff1673ffffffffffffffffffffffffffffffffffffffff1681526020019081526020016000205490506000600560003373ffffffffffffffffffffffffffffffffffffffff1673ffffffffffffffffffffffffffffffffffffffff168152602001908152602001600020819055503373ffffffffffffffffffffffffffffffffffffffff166108fc829081150290604051600060405180830381858888f193505050501515610e8d57600080fd5b50565b6000600383815481101515610ea157fe5b906000526020600020906007020160060160008373ffffffffffffffffffffffffffffffffffffffff1673ffffffffffffffffffffffffffffffffffffffff16815260200190815260200160002060009054906101000a900460ff16905092915050565b60056020528060005260406000206000915090505481565b6000610f27611f32565b6000803373ffffffffffffffffffffffffffffffffffffffff1673ffffffffffffffffffffffffffffffffffffffff16815260200190815260200160002060010160009054906101000a900473ffffffffffffffffffffffffffffffffffffffff1673ffffffffffffffffffffffffffffffffffffffff163373ffffffffffffffffffffffffffffffffffffffff161480610fcf5750600260009054906101000a900460ff16155b1515610fda57600080fd5b339150600085111515610fec57600080fd5b60008351118015610fff57506014835111155b151561100a57600080fd5b61101382611a5c565b151561101e57600080fd5b61102783611b06565b151561103257600080fd5b61103b83611b5e565b15151561104757600080fd5b60c0604051908101604052808781526020018681526020018581526020014281526020018373ffffffffffffffffffffffffffffffffffffffff168152602001848152509050600380548060010182816110a19190611f8b565b9160005260206000209060070201600083909190915060008201518160000190805190602001906110d3929190611fbd565b5060208201518160010155604082015181600201556060820151816003015560808201518160040160006101000a81548173ffffffffffffffffffffffffffffffffffffffff021916908373ffffffffffffffffffffffffffffffffffffffff16021790555060a082015181600501908051906020019061115592919061203d565b50505050505050505050565b60048181548110151561117057fe5b906000526020600020906005020160009150905080600001908060010154908060020154908060030160009054906101000a900473ffffffffffffffffffffffffffffffffffffffff16908060040160009054906101000a900473ffffffffffffffffffffffffffffffffffffffff16905085565b6003818154811015156111f457fe5b906000526020600020906007020160009150905080600001908060010154908060020154908060030154908060040160009054906101000a900473ffffffffffffffffffffffffffffffffffffffff16905085565b60018181548110151561125857fe5b90600052602060002090016000915054906101000a900473ffffffffffffffffffffffffffffffffffffffff1681565b6000806000806000806000600160008154811015156112a357fe5b906000526020600020900160009054906101000a900473ffffffffffffffffffffffffffffffffffffffff1673ffffffffffffffffffffffffffffffffffffffff1673ffffffffffffffffffffffffffffffffffffffff16815260200190815260200160002060020154925060009150600190505b600180549050811015611441576113aa8360008060018581548110151561133b57fe5b906000526020600020900160009054906101000a900473ffffffffffffffffffffffffffffffffffffffff1673ffffffffffffffffffffffffffffffffffffffff1673ffffffffffffffffffffffffffffffffffffffff16815260200190815260200160002060020154611c2d565b83141515611434576000806001838154811015156113c457fe5b906000526020600020900160009054906101000a900473ffffffffffffffffffffffffffffffffffffffff1673ffffffffffffffffffffffffffffffffffffffff1673ffffffffffffffffffffffffffffffffffffffff1681526020019081526020016000206002015492508091505b8080600101915050611318565b8282945094505050509091565b6114566120c7565b6000803373ffffffffffffffffffffffffffffffffffffffff1673ffffffffffffffffffffffffffffffffffffffff16815260200190815260200160002060010160009054906101000a900473ffffffffffffffffffffffffffffffffffffffff1673ffffffffffffffffffffffffffffffffffffffff163373ffffffffffffffffffffffffffffffffffffffff1614806114fe5750600260009054906101000a900460ff16155b151561150957600080fd5b6000808373ffffffffffffffffffffffffffffffffffffffff1673ffffffffffffffffffffffffffffffffffffffff16815260200190815260200160002060010160009054906101000a900473ffffffffffffffffffffffffffffffffffffffff1673ffffffffffffffffffffffffffffffffffffffff168273ffffffffffffffffffffffffffffffffffffffff161415806115b25750600260009054906101000a900460ff16155b15156115bd57600080fd5b600073ffffffffffffffffffffffffffffffffffffffff168273ffffffffffffffffffffffffffffffffffffffff16141515156115f957600080fd5b6080604051908101604052808481526020018373ffffffffffffffffffffffffffffffffffffffff1681526020016000815260200160008152509050600180805480600101828161164a919061210c565b9160005260206000209001600085909190916101000a81548173ffffffffffffffffffffffffffffffffffffffff021916908373ffffffffffffffffffffffffffffffffffffffff16021790555003816060018181525050806000808473ffffffffffffffffffffffffffffffffffffffff1673ffffffffffffffffffffffffffffffffffffffff16815260200190815260200160002060008201518160000190805190602001906116fd929190611fbd565b5060208201518160010160006101000a81548173ffffffffffffffffffffffffffffffffffffffff021916908373ffffffffffffffffffffffffffffffffffffffff1602179055506040820151816002015560608201518160030155905050505050565b600061176b612138565b6000803373ffffffffffffffffffffffffffffffffffffffff1673ffffffffffffffffffffffffffffffffffffffff16815260200190815260200160002060010160009054906101000a900473ffffffffffffffffffffffffffffffffffffffff1673ffffffffffffffffffffffffffffffffffffffff163373ffffffffffffffffffffffffffffffffffffffff1614806118135750600260009054906101000a900460ff16155b151561181e57600080fd5b33915060003411151561183057600080fd5b61183982611a5c565b5061184383611a5c565b5060a0604051908101604052808581526020013481526020014281526020018373ffffffffffffffffffffffffffffffffffffffff1681526020018473ffffffffffffffffffffffffffffffffffffffff168152509050600480548060010182816118ae919061219a565b9160005260206000209060050201600083909190915060008201518160000190805190602001906118e0929190611fbd565b50602082015181600101556040820151816002015560608201518160030160006101000a81548173ffffffffffffffffffffffffffffffffffffffff021916908373ffffffffffffffffffffffffffffffffffffffff16021790555060808201518160040160006101000a81548173ffffffffffffffffffffffffffffffffffffffff021916908373ffffffffffffffffffffffffffffffffffffffff16021790555050505034600560008573ffffffffffffffffffffffffffffffffffffffff1673ffffffffffffffffffffffffffffffffffffffff168152602001908152602001600020600082825401925050819055506119dc81611c47565b50505050565b60008060008373ffffffffffffffffffffffffffffffffffffffff1673ffffffffffffffffffffffffffffffffffffffff168152602001908152602001600020600201549050919050565b600260009054906101000a900460ff1681565b611a4b816001611cf8565b50565b611a59816000611cf8565b50565b60008060008373ffffffffffffffffffffffffffffffffffffffff1673ffffffffffffffffffffffffffffffffffffffff16815260200190815260200160002060010160009054906101000a900473ffffffffffffffffffffffffffffffffffffffff1673ffffffffffffffffffffffffffffffffffffffff168273ffffffffffffffffffffffffffffffffffffffff161415611afc5760019050611b01565b600090505b919050565b600080600090505b8251811015611b5357611b378382815181101515611b2857fe5b90602001906020020151611a5c565b1515611b465760009150611b58565b8080600101915050611b0e565b600191505b50919050565b60008060008060008092505b8551831015611c1f57600093508583815181101515611b8557fe5b906020019060200201519150600090505b8551811015611c12578581815181101515611bad57fe5b9060200190602002015173ffffffffffffffffffffffffffffffffffffffff168273ffffffffffffffffffffffffffffffffffffffff161415611bf35783806001019450505b6002841415611c055760019450611c24565b8080600101915050611b96565b8280600101935050611b6a565b600094505b50505050919050565b600081831215611c3d5781611c3f565b825b905092915050565b8060200151600080836080015173ffffffffffffffffffffffffffffffffffffffff1673ffffffffffffffffffffffffffffffffffffffff168152602001908152602001600020600201600082825403925050819055508060200151600080836060015173ffffffffffffffffffffffffffffffffffffffff1673ffffffffffffffffffffffffffffffffffffffff1681526020019081526020016000206002016000828254019250508190555050565b6000806000806000611d0987610ae5565b9450600085111515611d1a57600080fd5b600387815481101515611d2957fe5b90600052602060002090600702019350848460010154811515611d4857fe5b049250836001015491508515611d65578260000392508160000391505b816000808660040160009054906101000a900473ffffffffffffffffffffffffffffffffffffffff1673ffffffffffffffffffffffffffffffffffffffff1673ffffffffffffffffffffffffffffffffffffffff16815260200190815260200160002060020160008282540392505081905550600090505b8360050180549050811015611f15578360060160008560050183815481101515611e0357fe5b906000526020600020900160009054906101000a900473ffffffffffffffffffffffffffffffffffffffff1673ffffffffffffffffffffffffffffffffffffffff1673ffffffffffffffffffffffffffffffffffffffff16815260200190815260200160002060009054906101000a900460ff1615611f0857826000808660050184815481101515611e9157fe5b906000526020600020900160009054906101000a900473ffffffffffffffffffffffffffffffffffffffff1673ffffffffffffffffffffffffffffffffffffffff1673ffffffffffffffffffffffffffffffffffffffff168152602001908152602001600020600201600082825401925050819055505b8080600101915050611ddd565b50505050505050565b602060405190810160405280600081525090565b60c060405190810160405280611f466121cc565b8152602001600081526020016000815260200160008152602001600073ffffffffffffffffffffffffffffffffffffffff168152602001611f856121e0565b81525090565b815481835581811511611fb857600702816007028360005260206000209182019101611fb791906121f4565b5b505050565b828054600181600116156101000203166002900490600052602060002090601f016020900481019282601f10611ffe57805160ff191683800117855561202c565b8280016001018555821561202c579182015b8281111561202b578251825591602001919060010190612010565b5b5090506120399190612272565b5090565b8280548282559060005260206000209081019282156120b6579160200282015b828111156120b55782518260006101000a81548173ffffffffffffffffffffffffffffffffffffffff021916908373ffffffffffffffffffffffffffffffffffffffff1602179055509160200191906001019061205d565b5b5090506120c39190612297565b5090565b6080604051908101604052806120db6121cc565b8152602001600073ffffffffffffffffffffffffffffffffffffffff16815260200160008152602001600081525090565b815481835581811511612133578183600052602060002091820191016121329190612272565b5b505050565b60a06040519081016040528061214c6121cc565b81526020016000815260200160008152602001600073ffffffffffffffffffffffffffffffffffffffff168152602001600073ffffffffffffffffffffffffffffffffffffffff1681525090565b8154818355818115116121c7576005028160050283600052602060002091820191016121c691906122da565b5b505050565b602060405190810160405280600081525090565b602060405190810160405280600081525090565b61226f91905b8082111561226b57600080820160006122139190612367565b6001820160009055600282016000905560038201600090556004820160006101000a81549073ffffffffffffffffffffffffffffffffffffffff021916905560058201600061226291906123af565b506007016121fa565b5090565b90565b61229491905b80821115612290576000816000905550600101612278565b5090565b90565b6122d791905b808211156122d357600081816101000a81549073ffffffffffffffffffffffffffffffffffffffff02191690555060010161229d565b5090565b90565b61236491905b8082111561236057600080820160006122f99190612367565b600182016000905560028201600090556003820160006101000a81549073ffffffffffffffffffffffffffffffffffffffff02191690556004820160006101000a81549073ffffffffffffffffffffffffffffffffffffffff0219169055506005016122e0565b5090565b90565b50805460018160011615610100020316600290046000825580601f1061238d57506123ac565b601f0160209004906000526020600020908101906123ab9190612272565b5b50565b50805460008255906000526020600020908101906123cd9190612272565b505600a165627a7a72305820eec0c768a8f93d12e8f5d31ec57cafbbbde4cdc66e4181d2c962f12e229081840029",
  "source": "pragma solidity ^0.4.10;\n\n\n/// @title A group expenses smart contract allowing you to settle up your debts and credits\n/// @author Adrien Arcuri\n/// @notice You can use this contract to record your group expenses, Payment participants,\n/// check the debts and credits of the groups and settle up.\n/// @dev No comments for dev\ncontract WeExpenses {\n\n\n    /**\n    Participant is a person or an organization which is part of the group expense.\n     */\n    struct Participant {\n        string name;\n        address waddress;\n        int balance;\n        uint index;\n    }\n\n    /**\n    Expense is cost incurred which will be pay back.\n    Expense has an impact on the balance for payer and payee only if payee give its agreement.\n     */\n    struct Expense {\n        string title;\n        uint amount;\n        uint valueDate;\n        uint creationDate;\n        address payer; \n        address[] payees; \n        mapping(address => bool) agreements; \n    }\n\n    /**\n    Payment is money transfer from one participant to another.\n    Payment can be use to settle a debt or a credit.\n     */\n    struct Payment {\n        string title;\n        uint amount;\n        uint valueDate;\n        address payer;\n        address payee;\n    }\n\n    /// This declares a state variable that stores a `Participant` struct for each possible address.\n    mapping(address => Participant) public participants;\n\n    /// This store in an array all the participants\n    address[] public addressList;\n\n    /// Allow the creation of the first participant when the contract is deployed\n    bool public deployed = false;\n    \n    // A dynamically-sized array of `Expenses` structs.\n    Expense[] public expenses;\n\n    // A dynamically-sized array of `Payments` structs.\n    Payment[] public payments;\n\n    // A mapping of all the available withdrawals per address\n    mapping(address => uint) public withdrawals;\n\n    /// This modifier requires that the sender of the transaction is registred as participant\n    modifier onlyByParticipant () {\n        require(msg.sender == participants[msg.sender].waddress || !deployed);\n        _;\n    }\n\n    /// @notice Constructor of our smart contract. The creator of the smart contract will be the first participant.\n    /// @dev \n    /// @param name the name of the first participant\n    /// @return \n    function WeExpenses(string name) public {\n        createParticipant(name, msg.sender);\n        deployed = true;\n    }\n\n    /// @notice Create a participant. Only registered participant can add new participant\n    /// @param _name the name of the participant\n    /// @param _waddress the address of the participant\n    function createParticipant(string _name, address _waddress) public onlyByParticipant() {\n        require(_waddress != participants[_waddress].waddress || !deployed); //only one address per participant\n        require(_waddress != address(0)); // avoid to participant address equal to 0x0\n        Participant memory participant = Participant({name: _name, waddress: _waddress, balance: 0, index: 0});\n        participant.index = addressList.push(_waddress)-1; //add the address to the addressList\n        participants[_waddress] = participant;\n    }\n\n    /// @notice Create an expense as payer. By default, the payer is the creator of the expense\n    /// @dev The number of payees are limited to 20 to avoid gas limit using loop\n    /// @param _title the title of the expense\n    /// @param _amount the amount of the expense. Must be superior to zero\n    /// @param _valueDate the value date of the expense\n    /// @param _payees the list of payee of the expense. The payer can be part of the payees\n    function createExpense(string _title, uint _amount, uint _valueDate, address[] _payees) public onlyByParticipant() {\n        address _payer = msg.sender;\n        require(_amount > 0);\n        require(_payees.length > 0 && _payees.length <= 20);\n        require(isParticipant(_payer));\n        require(isParticipants(_payees));\n        require(!isDuplicateInpayees(_payees));\n\n        Expense memory expense = Expense(_title, _amount, _valueDate, now, _payer, _payees);\n        expenses.push(expense);\n    }\n\n    /// @notice Set participant's agreeement for an expense. Each participant has 4 weeks to set its agreement.\n    /// @param indexExpense the index of the expense\n    /// @param agree the agreement of the participant : true of false\n    function setAgreement(uint indexExpense, bool agree) public onlyByParticipant() {\n        Expense storage expense = expenses[indexExpense];\n        require(expense.creationDate > expense.creationDate + 4 weeks);\n        require(expense.agreements[msg.sender] != agree);\n        uint numberOfAgreeBefore = getNumberOfAgreements(indexExpense);\n        /// Warning : There is no agreements when the expense is created. That's mean the balance did not synchronize.\n        /// If the number of agreements before is not 0, we revert the balance to the previous state without the expense\n        if (numberOfAgreeBefore != 0) {\n            revertBalance(indexExpense);\n        }\n\n        /// Update the number of agreements\n        expense.agreements[msg.sender] = agree;\n        uint numberOfAgreeAfter = getNumberOfAgreements(indexExpense);\n\n        /// If the number of agreements after is not 0, we syncrhonize the balance\n        if (numberOfAgreeAfter != 0) {\n            syncBalance(indexExpense);\n        }\n    }\n\n    /// @notice Create a Payment. Use this payable function send money to the smart contract.\n    /// @param _title the title of the payment\n    /// @param _payee the payee of the payment\n    function createPayment(string _title, address _payee) public onlyByParticipant() payable {   \n        address _payer = msg.sender;\n        require(msg.value > 0);\n        isParticipant(_payer);\n        isParticipant(_payee);\n        Payment memory payment = Payment({title: _title, amount: msg.value, valueDate: now, payer: _payer, payee: _payee});\n        payments.push(payment);\n        withdrawals[_payee] += msg.value;\n        syncBalancePayment(payment);\n    }\n\n    /// @notice Allow each user to withdraw its money from the smart contract\n    function withdraw() public onlyByParticipant() {\n        require(withdrawals[msg.sender] > 0);\n        uint amount = withdrawals[msg.sender];\n        withdrawals[msg.sender] = 0;\n        msg.sender.transfer(amount);\n    }\n\n    /// @notice Get the max of all balances\n    /// @return (max, index) where max is the max of all the balance and index is the index of the participant\n    function getMaxBalance() public view returns (int, uint) {\n        int max = participants[addressList[0]].balance;\n        uint index = 0;\n        for (uint i = 1; i < addressList.length; i++) {\n            if (max != max256(max, participants[addressList[i]].balance)) {\n                max = participants[addressList[i]].balance;\n                index = i;\n            }\n        }\n        return (max, index);\n    }\n\n    /// @notice Get agreement depending on the indexExpenses and address of the participant\n    /// @param indexExpense the index of the expense\n    /// @param _waddress address of the payee\n    /// @return true if payee gave is agreement, else false\n    function getAgreement(uint indexExpense, address _waddress) public view returns (bool) {\n        return expenses[indexExpense].agreements[_waddress];\n    }\n\n    /// @notice Get the total number of agreements for a given expense\n    /// @param indexExpense the index of the expense\n    /// @return the number of agreements\n    function getNumberOfAgreements(uint indexExpense) public view returns (uint) {\n        Expense storage expense = expenses[indexExpense];\n        uint numberOfAgreements = 0;\n        for (uint i = 0; i < expense.payees.length; i++) {\n            if (expense.agreements[expense.payees[i]] == true) {\n                numberOfAgreements++;\n            }                \n        }\n        return numberOfAgreements;  \n    }\n\n    /// @notice Get balance of a participant\n    /// @param _waddress the address of the participant\n    /// @return the balance of the participant\n    function getBalance(address _waddress) public view returns (int) {\n        return participants[_waddress].balance;\n    }\n\n    /// @notice Get name of a participant\n    /// @param _waddress the address of the participant\n    /// @return the name of the participant\n    function getParticipantName(address _waddress) public view returns (string) {\n        return participants[_waddress].name;\n    }\n\n    /// @notice Check if there is duplicate inside array\n    /// @param list the list of address to check \n    /// @return true if there is duplicate, false otherwise\n    function isDuplicateInpayees(address[] list) internal pure returns (bool) {\n        uint counter;\n        for (uint i = 0; i < list.length; i++) {\n            counter = 0;\n            address addr = list[i];\n            for (uint j = 0; j < list.length; j++) {\n                if (addr == list[j]) {counter++;}\n                if (counter == 2) {return true;}\n            }\n        }\n        return false;\n    }\n\n    /// @notice Check if each address of the list is registred as participant\n    /// @param list the list of address to check \n    /// @return true if all the list is registred as participant, false otherwise\n    function isParticipants(address[] list) internal view returns (bool) {\n        for (uint i = 0; i < list.length; i++) {\n            if (!isParticipant(list[i])) {\n                return false;\n            }\n        }\n        return true;\n    }\n\n\n\n    /// @notice Check if each address of the list is registred as participant\n    /// @param _waddress the address to check \n    /// @return true if all the list is registred as participant, false otherwise\n    function isParticipant(address _waddress) internal view returns (bool) {\n        if (_waddress == participants[_waddress].waddress) {\n            return true;\n        }else {\n            return false;\n        }\n    }\n\n    /// @notice synchronize balance after each change of the agreements state\n    /// @dev This function must be use if there is at list one agreement in the expense\n    /// @param indexExpense the index of the expense\n    function syncBalance(uint indexExpense) internal {\n        calculateBalance(indexExpense, false);\n    }\n\n    /// @notice Revert the state of the balance after each change of the agreements state\n    /// @dev This function must not be use if there is zero agreement\n    /// @param indexExpense the index of the expense\n    function revertBalance(uint indexExpense) internal {\n        calculateBalance(indexExpense, true);\n    }\n\n    /// @notice Calculate the state of the balance after each change of the agreements state (revert or synchornize)\n    /// @param indexExpense the index of the expense\n    /// @param isRevert indicate if the expense must be reverted or synchronized\n    function calculateBalance(uint indexExpense, bool isRevert) internal {\n        uint contributors = getNumberOfAgreements(indexExpense);\n        require(contributors > 0);\n        Expense storage expense = expenses[indexExpense];\n        int _portion = int(expense.amount / contributors);\n        int _amount = int(expense.amount);\n        \n        if (isRevert) {\n            _portion = -(_portion);\n            _amount = -(_amount);\n        }\n\n        participants[expense.payer].balance -= _amount;\n        for (uint i = 0; i < expense.payees.length; i++) {\n            if (expense.agreements[expense.payees[i]]) {\n                participants[expense.payees[i]].balance += _portion;\n            }   \n        }       \n    }\n  \n    // Synchronize the balance after each new Payment\n    function syncBalancePayment(Payment payment) internal {\n        participants[payment.payee].balance -= int(payment.amount);\n        participants[payment.payer].balance += int(payment.amount);\n    }\n\n    function max256(int256 a, int256 b) internal pure returns (int256) {\n        return a >= b ? a : b;\n    }\n\n    function min256(int256 a, int256 b) internal pure returns (int256) {\n        return a < b ? a : b;\n    }    \n}\n    \n",
  "sourcePath": "/Users/adrienarcuri/Sites/WeExpenses/contracts/WeExpenses.sol",
  "compiler": {
    "name": "solc",
    "version": "0.4.19+commit.c4cbbb05.Emscripten.clang"
  },
  "schemaVersion": "1.0.1",
  "updatedAt": "2018-03-11T20:19:18.785Z"
}