{
  "contractName": "WeExpenses",
  "abi": [
    {
      "constant": true,
      "inputs": [
        {
          "name": "",
          "type": "address"
        }
      ],
      "name": "participants",
      "outputs": [
        {
          "name": "name",
          "type": "string"
        },
        {
          "name": "waddress",
          "type": "address"
        },
        {
          "name": "balance",
          "type": "int256"
        },
        {
          "name": "index",
          "type": "uint256"
        }
      ],
      "payable": false,
      "stateMutability": "view",
      "type": "function"
    },
    {
      "constant": true,
      "inputs": [
        {
          "name": "",
          "type": "uint256"
        }
      ],
      "name": "expenses",
      "outputs": [
        {
          "name": "title",
          "type": "string"
        },
        {
          "name": "amount",
          "type": "uint256"
        },
        {
          "name": "date",
          "type": "uint256"
        },
        {
          "name": "payBy",
          "type": "address"
        }
      ],
      "payable": false,
      "stateMutability": "view",
      "type": "function"
    },
    {
      "constant": true,
      "inputs": [
        {
          "name": "",
          "type": "uint256"
        }
      ],
      "name": "addressList",
      "outputs": [
        {
          "name": "",
          "type": "address"
        }
      ],
      "payable": false,
      "stateMutability": "view",
      "type": "function"
    },
    {
      "constant": true,
      "inputs": [
        {
          "name": "",
          "type": "uint256"
        }
      ],
      "name": "refunds",
      "outputs": [
        {
          "name": "title",
          "type": "string"
        },
        {
          "name": "amount",
          "type": "uint256"
        },
        {
          "name": "date",
          "type": "uint256"
        },
        {
          "name": "refundBy",
          "type": "address"
        },
        {
          "name": "refundFor",
          "type": "address"
        }
      ],
      "payable": false,
      "stateMutability": "view",
      "type": "function"
    },
    {
      "inputs": [
        {
          "name": "name",
          "type": "string"
        }
      ],
      "payable": false,
      "stateMutability": "nonpayable",
      "type": "constructor"
    },
    {
      "constant": false,
      "inputs": [
        {
          "name": "title",
          "type": "string"
        },
        {
          "name": "amount",
          "type": "uint256"
        },
        {
          "name": "date",
          "type": "uint256"
        },
        {
          "name": "payBy",
          "type": "address"
        },
        {
          "name": "payFor",
          "type": "address[]"
        }
      ],
      "name": "createExpense",
      "outputs": [],
      "payable": false,
      "stateMutability": "nonpayable",
      "type": "function"
    },
    {
      "constant": false,
      "inputs": [
        {
          "name": "name",
          "type": "string"
        },
        {
          "name": "waddress",
          "type": "address"
        }
      ],
      "name": "createParticipant",
      "outputs": [],
      "payable": false,
      "stateMutability": "nonpayable",
      "type": "function"
    },
    {
      "constant": false,
      "inputs": [
        {
          "name": "title",
          "type": "string"
        },
        {
          "name": "amount",
          "type": "uint256"
        },
        {
          "name": "date",
          "type": "uint256"
        },
        {
          "name": "refundBy",
          "type": "address"
        },
        {
          "name": "refundFor",
          "type": "address"
        }
      ],
      "name": "createRefund",
      "outputs": [],
      "payable": false,
      "stateMutability": "nonpayable",
      "type": "function"
    },
    {
      "constant": true,
      "inputs": [],
      "name": "getMaxBalance",
      "outputs": [
        {
          "name": "",
          "type": "int256"
        },
        {
          "name": "",
          "type": "uint256"
        }
      ],
      "payable": false,
      "stateMutability": "view",
      "type": "function"
    },
    {
      "constant": true,
      "inputs": [
        {
          "name": "waddress",
          "type": "address"
        }
      ],
      "name": "getBalance",
      "outputs": [
        {
          "name": "",
          "type": "int256"
        }
      ],
      "payable": false,
      "stateMutability": "view",
      "type": "function"
    },
    {
      "constant": true,
      "inputs": [
        {
          "name": "i",
          "type": "uint256"
        }
      ],
      "name": "getExpensePayFor",
      "outputs": [
        {
          "name": "",
          "type": "address[]"
        }
      ],
      "payable": false,
      "stateMutability": "view",
      "type": "function"
    }
  ],
  "bytecode": "0x606060405234156200001057600080fd5b604051620018f5380380620018f5833981016040528080518201919050506200004e8133620000556401000000000262000d9c176401000000009004565b5062000304565b6200005f620001cb565b6080604051908101604052808481526020018373ffffffffffffffffffffffffffffffffffffffff16815260200160008152602001600081525090506001808054806001018281620000b2919062000212565b9160005260206000209001600085909190916101000a81548173ffffffffffffffffffffffffffffffffffffffff021916908373ffffffffffffffffffffffffffffffffffffffff16021790555003816060018181525050806000808473ffffffffffffffffffffffffffffffffffffffff1673ffffffffffffffffffffffffffffffffffffffff16815260200190815260200160002060008201518160000190805190602001906200016792919062000241565b5060208201518160010160006101000a81548173ffffffffffffffffffffffffffffffffffffffff021916908373ffffffffffffffffffffffffffffffffffffffff1602179055506040820151816002015560608201518160030155905050505050565b608060405190810160405280620001e1620002c8565b8152602001600073ffffffffffffffffffffffffffffffffffffffff16815260200160008152602001600081525090565b8154818355818115116200023c578183600052602060002091820191016200023b9190620002dc565b5b505050565b828054600181600116156101000203166002900490600052602060002090601f016020900481019282601f106200028457805160ff1916838001178555620002b5565b82800160010185558215620002b5579182015b82811115620002b457825182559160200191906001019062000297565b5b509050620002c49190620002dc565b5090565b602060405190810160405280600081525090565b6200030191905b80821115620002fd576000816000905550600101620002e3565b5090565b90565b6115e180620003146000396000f3006060604052600436106100a4576000357c0100000000000000000000000000000000000000000000000000000000900463ffffffff16806305a0d037146100a957806309e69ede1461011c57806314f23fbc1461022c57806347f7dc1b146102aa578063af4afe0a14610322578063b810fb431461041c578063c3e1888e1461047f578063e36bd0f3146104af578063f8008ec9146105dc578063f8b2cb4f14610658575b600080fd5b34156100b457600080fd5b61011a6004808035906020019082018035906020019190919290803590602001909190803590602001909190803573ffffffffffffffffffffffffffffffffffffffff1690602001909190803590602001908201803590602001919091929050506106a5565b005b341561012757600080fd5b610153600480803573ffffffffffffffffffffffffffffffffffffffff16906020019091905050610823565b60405180806020018573ffffffffffffffffffffffffffffffffffffffff1673ffffffffffffffffffffffffffffffffffffffff16815260200184815260200183815260200182810382528681815460018160011615610100020316600290048152602001915080546001816001161561010002031660029004801561021a5780601f106101ef5761010080835404028352916020019161021a565b820191906000526020600020905b8154815290600101906020018083116101fd57829003601f168201915b50509550505050505060405180910390f35b341561023757600080fd5b6102a86004808035906020019082018035906020019190919290803590602001909190803590602001909190803573ffffffffffffffffffffffffffffffffffffffff1690602001909190803573ffffffffffffffffffffffffffffffffffffffff16906020019091905050610872565b005b34156102b557600080fd5b6102cb6004808035906020019091905050610a01565b6040518080602001828103825283818151815260200191508051906020019060200280838360005b8381101561030e5780820151818401526020810190506102f3565b505050509050019250505060405180910390f35b341561032d57600080fd5b6103436004808035906020019091905050610ab5565b60405180806020018581526020018481526020018373ffffffffffffffffffffffffffffffffffffffff1673ffffffffffffffffffffffffffffffffffffffff16815260200182810382528681815460018160011615610100020316600290048152602001915080546001816001161561010002031660029004801561040a5780601f106103df5761010080835404028352916020019161040a565b820191906000526020600020905b8154815290600101906020018083116103ed57829003601f168201915b50509550505050505060405180910390f35b341561042757600080fd5b61043d6004808035906020019091905050610b13565b604051808273ffffffffffffffffffffffffffffffffffffffff1673ffffffffffffffffffffffffffffffffffffffff16815260200191505060405180910390f35b341561048a57600080fd5b610492610b52565b604051808381526020018281526020019250505060405180910390f35b34156104ba57600080fd5b6104d06004808035906020019091905050610d18565b60405180806020018681526020018581526020018473ffffffffffffffffffffffffffffffffffffffff1673ffffffffffffffffffffffffffffffffffffffff1681526020018373ffffffffffffffffffffffffffffffffffffffff1673ffffffffffffffffffffffffffffffffffffffff1681526020018281038252878181546001816001161561010002031660029004815260200191508054600181600116156101000203166002900480156105c95780601f1061059e576101008083540402835291602001916105c9565b820191906000526020600020905b8154815290600101906020018083116105ac57829003601f168201915b5050965050505050505060405180910390f35b34156105e757600080fd5b610656600480803590602001908201803590602001908080601f0160208091040260200160405190810160405280939291908181526020018383808284378201915050505050509190803573ffffffffffffffffffffffffffffffffffffffff16906020019091905050610d9c565b005b341561066357600080fd5b61068f600480803573ffffffffffffffffffffffffffffffffffffffff16906020019091905050610f0c565b6040518082815260200191505060405180910390f35b6106ad611112565b60a06040519081016040528089898080601f01602080910402602001604051908101604052809392919081815260200183838082843782019150505050505081526020018781526020018681526020018573ffffffffffffffffffffffffffffffffffffffff1681526020018484808060200260200160405190810160405280939291908181526020018383602002808284378201915050505050508152509050600280548060010182816107629190611164565b916000526020600020906005020160008390919091506000820151816000019080519060200190610794929190611196565b50602082015181600101556040820151816002015560608201518160030160006101000a81548173ffffffffffffffffffffffffffffffffffffffff021916908373ffffffffffffffffffffffffffffffffffffffff160217905550608082015181600401908051906020019061080c929190611216565b5050505061081981610f57565b5050505050505050565b600060205280600052604060002060009150905080600001908060010160009054906101000a900473ffffffffffffffffffffffffffffffffffffffff16908060020154908060030154905084565b61087a6112a0565b60a06040519081016040528088888080601f01602080910402602001604051908101604052809392919081815260200183838082843782019150505050505081526020018681526020018581526020018473ffffffffffffffffffffffffffffffffffffffff1681526020018373ffffffffffffffffffffffffffffffffffffffff168152509050600380548060010182816109169190611302565b916000526020600020906005020160008390919091506000820151816000019080519060200190610948929190611196565b50602082015181600101556040820151816002015560608201518160030160006101000a81548173ffffffffffffffffffffffffffffffffffffffff021916908373ffffffffffffffffffffffffffffffffffffffff16021790555060808201518160040160006101000a81548173ffffffffffffffffffffffffffffffffffffffff021916908373ffffffffffffffffffffffffffffffffffffffff1602179055505050506109f88286611056565b50505050505050565b610a09611334565b600282815481101515610a1857fe5b9060005260206000209060050201600401805480602002602001604051908101604052809291908181526020018280548015610aa957602002820191906000526020600020905b8160009054906101000a900473ffffffffffffffffffffffffffffffffffffffff1673ffffffffffffffffffffffffffffffffffffffff1681526020019060010190808311610a5f575b50505050509050919050565b600281815481101515610ac457fe5b906000526020600020906005020160009150905080600001908060010154908060020154908060030160009054906101000a900473ffffffffffffffffffffffffffffffffffffffff16905084565b600181815481101515610b2257fe5b90600052602060002090016000915054906101000a900473ffffffffffffffffffffffffffffffffffffffff1681565b600080600080600080600060016000815481101515610b6d57fe5b906000526020600020900160009054906101000a900473ffffffffffffffffffffffffffffffffffffffff1673ffffffffffffffffffffffffffffffffffffffff1673ffffffffffffffffffffffffffffffffffffffff16815260200190815260200160002060020154925060009150600190505b600180549050811015610d0b57610c7483600080600185815481101515610c0557fe5b906000526020600020900160009054906101000a900473ffffffffffffffffffffffffffffffffffffffff1673ffffffffffffffffffffffffffffffffffffffff1673ffffffffffffffffffffffffffffffffffffffff168152602001908152602001600020600201546110f8565b83141515610cfe57600080600183815481101515610c8e57fe5b906000526020600020900160009054906101000a900473ffffffffffffffffffffffffffffffffffffffff1673ffffffffffffffffffffffffffffffffffffffff1673ffffffffffffffffffffffffffffffffffffffff1681526020019081526020016000206002015492508091505b8080600101915050610be2565b8282945094505050509091565b600381815481101515610d2757fe5b906000526020600020906005020160009150905080600001908060010154908060020154908060030160009054906101000a900473ffffffffffffffffffffffffffffffffffffffff16908060040160009054906101000a900473ffffffffffffffffffffffffffffffffffffffff16905085565b610da4611348565b6080604051908101604052808481526020018373ffffffffffffffffffffffffffffffffffffffff16815260200160008152602001600081525090506001808054806001018281610df5919061138d565b9160005260206000209001600085909190916101000a81548173ffffffffffffffffffffffffffffffffffffffff021916908373ffffffffffffffffffffffffffffffffffffffff16021790555003816060018181525050806000808473ffffffffffffffffffffffffffffffffffffffff1673ffffffffffffffffffffffffffffffffffffffff1681526020019081526020016000206000820151816000019080519060200190610ea8929190611196565b5060208201518160010160006101000a81548173ffffffffffffffffffffffffffffffffffffffff021916908373ffffffffffffffffffffffffffffffffffffffff1602179055506040820151816002015560608201518160030155905050505050565b60008060008373ffffffffffffffffffffffffffffffffffffffff1673ffffffffffffffffffffffffffffffffffffffff168152602001908152602001600020600201549050919050565b6000808260800151518360200151811515610f6e57fe5b0491508260200151600080856060015173ffffffffffffffffffffffffffffffffffffffff1673ffffffffffffffffffffffffffffffffffffffff16815260200190815260200160002060020160008282540192505081905550600090505b8260800151518110156110515781600080856080015184815181101515610ff057fe5b9060200190602002015173ffffffffffffffffffffffffffffffffffffffff1673ffffffffffffffffffffffffffffffffffffffff168152602001908152602001600020600201600082825403925050819055508080600101915050610fcd565b505050565b806000808473ffffffffffffffffffffffffffffffffffffffff1673ffffffffffffffffffffffffffffffffffffffff16815260200190815260200160002060020160008282540392505081905550806000803373ffffffffffffffffffffffffffffffffffffffff1673ffffffffffffffffffffffffffffffffffffffff168152602001908152602001600020600201600082825401925050819055505050565b600081831215611108578161110a565b825b905092915050565b60a0604051908101604052806111266113b9565b81526020016000815260200160008152602001600073ffffffffffffffffffffffffffffffffffffffff16815260200161115e6113cd565b81525090565b8154818355818115116111915760050281600502836000526020600020918201910161119091906113e1565b5b505050565b828054600181600116156101000203166002900490600052602060002090601f016020900481019282601f106111d757805160ff1916838001178555611205565b82800160010185558215611205579182015b828111156112045782518255916020019190600101906111e9565b5b5090506112129190611457565b5090565b82805482825590600052602060002090810192821561128f579160200282015b8281111561128e5782518260006101000a81548173ffffffffffffffffffffffffffffffffffffffff021916908373ffffffffffffffffffffffffffffffffffffffff16021790555091602001919060010190611236565b5b50905061129c919061147c565b5090565b60a0604051908101604052806112b46113b9565b81526020016000815260200160008152602001600073ffffffffffffffffffffffffffffffffffffffff168152602001600073ffffffffffffffffffffffffffffffffffffffff1681525090565b81548183558181151161132f5760050281600502836000526020600020918201910161132e91906114bf565b5b505050565b602060405190810160405280600081525090565b60806040519081016040528061135c6113b9565b8152602001600073ffffffffffffffffffffffffffffffffffffffff16815260200160008152602001600081525090565b8154818355818115116113b4578183600052602060002091820191016113b39190611457565b5b505050565b602060405190810160405280600081525090565b602060405190810160405280600081525090565b61145491905b808211156114505760008082016000611400919061154c565b600182016000905560028201600090556003820160006101000a81549073ffffffffffffffffffffffffffffffffffffffff02191690556004820160006114479190611594565b506005016113e7565b5090565b90565b61147991905b8082111561147557600081600090555060010161145d565b5090565b90565b6114bc91905b808211156114b857600081816101000a81549073ffffffffffffffffffffffffffffffffffffffff021916905550600101611482565b5090565b90565b61154991905b8082111561154557600080820160006114de919061154c565b600182016000905560028201600090556003820160006101000a81549073ffffffffffffffffffffffffffffffffffffffff02191690556004820160006101000a81549073ffffffffffffffffffffffffffffffffffffffff0219169055506005016114c5565b5090565b90565b50805460018160011615610100020316600290046000825580601f106115725750611591565b601f0160209004906000526020600020908101906115909190611457565b5b50565b50805460008255906000526020600020908101906115b29190611457565b505600a165627a7a723058208e9ec6a66ca0e049d71375238c1a0f82b0fe12ed6c8007c1e7048ab1dbefe7050029",
  "source": "pragma solidity ^0.4.10;\n\n/// @title WeExpenses : sharing expenses with WeExpenses.\ncontract WeExpenses {\n    // Participant is a person or an organization which can be part of \n    struct Participant {\n        string name; // name of the participant or the organization\n        address waddress; // address of the participant\n        int balance; // balance of the participant (int type because balance can be negative)\n        uint index; // index of the participant in the address list\n    }\n\n    // Expense which will be part of all the expenses\n    struct Expense {\n        string title; // title or designation of the expense\n        uint amount; // amount of the expense (uint type because amount must not be negative)\n        uint date; // date of the expense \n        address payBy; // The participant who pays the expense\n        address[] payFor; // The list of participants who apply for the expense\n    }\n\n    // Refund which will be part of all the refunds\n    struct Refund {\n        string title; // title or designation of the refund\n        uint amount; // amount of the refund (uint type because amount must not be negative)\n        uint date; // date of the refund\n        address refundBy; // The participant who refunds\n        address refundFor; // The refunded participant\n    }\n\n    // This declares a state variable that\n    // stores a `Participant` struct for each possible address.\n    mapping(address => Participant) public participants;\n\n    address[] public addressList;\n    \n\n    // A dynamically-sized array of `Expenses` structs.\n    Expense[] public expenses;\n\n    // A dynamically-sized array of `Refunds` structs.\n    Refund[] public refunds;    \n\n    /// Create a new WeExpenses contract with the creator as first participant\n    function WeExpenses(string name) public {\n        createParticipant(name, msg.sender);\n    }\n\n    // Create a new expense and add it in the expenses list\n    function createExpense(string title, uint amount, uint date, address payBy, address[] payFor) external {\n        Expense memory expense = Expense(title, amount, date, payBy, payFor);\n        expenses.push(expense);\n        syncBalanceExp(expense);\n    }\n\n    // Create a new participant in the participants mapping\n    function createParticipant(string name, address waddress) public {\n        Participant memory participant = Participant({name: name, waddress: waddress, balance: 0, index: 0});\n        participant.index = addressList.push(waddress)-1; //add the address to the addressList\n        participants[waddress] = participant;\n    }\n\n    // Create a new refund and add it in the refunds list\n    function createRefund(string title, uint amount, uint date, address refundBy, address refundFor) external {\n        Refund memory refund = Refund({title: title, amount: amount, date: date, refundBy: refundBy, refundFor: refundFor});\n        refunds.push(refund);\n        syncBalanceRef(refundFor, amount);\n    }\n\n    // Synchronize the balance after each new expense\n    function syncBalanceExp(Expense expense) internal {\n        uint portion = expense.amount / expense.payFor.length;\n        participants[expense.payBy].balance += int(expense.amount);\n        for (uint i = 0; i < expense.payFor.length; i++) {\n                participants[expense.payFor[i]].balance -= int(portion);\n        }       \n    }\n\n    // Return maximum balance and the index of the list of participants\n    function getMaxBalance() public view returns (int, uint) {\n        int max = participants[addressList[0]].balance;\n        uint index = 0;\n        for (uint i = 1; i < addressList.length; i++) {\n            if (max != max256(max, participants[addressList[i]].balance)) {\n                max = participants[addressList[i]].balance;\n                index = i;\n            }\n        }\n        return (max,index);\n    }\n\n    // Get Balance of a participant\n    function getBalance(address waddress) public view returns (int) {\n        return participants[waddress].balance;\n    }\n  \n    // Synchronize the balance after each new refund\n    function syncBalanceRef(address to, uint amount) internal {\n        participants[to].balance -= int(amount);\n        participants[msg.sender].balance += int(amount);\n    }\n\n    // Get the list of PayFor of an expense\n    function getExpensePayFor(uint i) public view returns (address[]) {\n      return expenses[i].payFor;\n    }\n\n    function max256(int256 a, int256 b) internal pure returns (int256) {\n        return a >= b ? a : b;\n    }\n\n    function min256(int256 a, int256 b) internal pure returns (int256) {\n        return a < b ? a : b;\n    }    \n}\n    \n",
  "sourcePath": "/Users/adrienarcuri/Sites/WeExpenses/contracts/WeExpenses.sol",
  "compiler": {
    "name": "solc",
    "version": "0.4.19+commit.c4cbbb05.Emscripten.clang"
  },
  "schemaVersion": "1.0.1",
  "updatedAt": "2018-02-24T18:35:44.474Z"
}